:020000040800F2
:1000000000000220B52500086D1F00086F1F0008C2
:10001000711F0008731F0008751F00080000000012
:100020000000000000000000000000004156000831
:10003000771F000800000000E15600082750000864
:1000400005260008052600080526000805260008E4
:1000500005260008052600080526000805260008D4
:1000600005260008052600080526000805260008C4
:10007000791F000805260008052600080526000847
:10008000052600080526000805260008891F000827
:10009000991F000805260008052600080526000807
:1000A0000526000805260008052600080526000884
:1000B0000526000805260008A91F000805260008D7
:1000C0000526000805260008052600080526000864
:1000D00005260008B91F000805260008C91F0008EA
:1000E0000526000805260008052600080526000844
:1000F0000526000805260008052600080526000834
:100100000526000805260008052600080526000823
:10011000052600080526000805260008D91F000846
:1001200005260008E91F0008F91F0008092000083B
:1001300005260008052600080526000819200008E5
:1001400005260008292000080526000805260008C5
:1001500039200008492000085920000869200008BB
:1001600005260008052600080526000805260008C3
:1001700005260008052600080526000800000000E6
:08018000052600080526000811
:1001C00081F0004102E000BF83F0004330B54FEA08
:1001D00041044FEA430594EA050F08BF90EA020F75
:1001E0001FBF54EA000C55EA020C7FEA645C7FEA08
:1001F000655C00F0E2804FEA5454D4EB5555B8BF2B
:100200006D420CDD2C4480EA020281EA030382EA9B
:10021000000083EA010180EA020281EA0303362D2D
:1002200088BF30BD11F0004F4FEA01314FF4801C00
:100230004CEA113102D0404261EB410113F0004F12
:100240004FEA03334CEA133302D0524263EB4303C9
:1002500094EA050F00F0A780A4F10104D5F1200E67
:100260000DDB02FA0EFC22FA05F2801841F10001C2
:1002700003FA0EF2801843FA05F359410EE0A5F196
:1002800020050EF1200E012A03FA0EFC28BF4CF0C7
:10029000020C43FA05F3C01851EBE37101F000457D
:1002A00007D54FF0000EDCF1000C7EEB00006EEB8A
:1002B0000101B1F5801F1BD3B1F5001F0CD3490814
:1002C0005FEA30004FEA3C0C04F101044FEA44526B
:1002D00012F5800F80F09A80BCF1004F08BF5FEAF2
:1002E000500C50F1000041EB045141EA050130BDD2
:1002F0005FEA4C0C404141EB0101013C28BFB1F5E4
:10030000801FE9D291F0000F04BF01460020B1FA2E
:1003100081F308BF2033A3F10B03B3F120020CDA01
:100320000C3208DD02F1140CC2F10C0201FA0CF0DF
:1003300021FA02F10CE002F11402D8BFC2F1200C44
:1003400001FA02F120FA0CFCDCBF41EA0C019040FA
:10035000E41AA2BF01EB0451294330BD6FEA040443
:100360001F3C1CDA0C340EDC04F11404C4F120022E
:1003700020FA04F001FA02F340EA030021FA04F340
:1003800045EA030130BDC4F10C04C4F1200220FA97
:1003900002F001FA04F340EA0300294630BD21FAD5
:1003A00004F0294630BD94F0000F83F4801306BF9B
:1003B00081F480110134013D4EE77FEA645C18BF8F
:1003C0007FEA655C29D094EA050F08BF90EA020F26
:1003D00005D054EA000C04BF1946104630BD91EA1E
:1003E000030F1EBF0021002030BD5FEA545C05D121
:1003F0004000494128BF41F0004130BD14F5800460
:100400003CBF01F5801130BD01F0004545F0FE41D3
:1004100041F470014FF0000030BD7FEA645C1ABF08
:10042000194610467FEA655C1CBF0B46024650EA3F
:10043000013406BF52EA033591EA030F41F400216B
:1004400030BD00BF90F0000F04BF0021704730B5F1
:100450004FF4806404F132044FF000054FF00001C6
:1004600050E700BF90F0000F04BF0021704730B587
:100470004FF4806404F1320410F0004548BF40425C
:100480004FF000013EE700BF42004FEAE2014FEAB1
:1004900031014FEA02701FBF12F07F4393F07F4F8C
:1004A00081F06051704732F07F4208BF704793F08F
:1004B0007F4F04BF41F40021704730B54FF46074A2
:1004C00001F0004521F000411CE700BF50EA0102A5
:1004D00008BF704730B54FF000050AE050EA01024E
:1004E00008BF704730B511F0004502D5404261EBBE
:1004F00041014FF4806404F132045FEA915C3FF4FF
:10050000D8AE4FF003025FEADC0C18BF03325FEA9B
:10051000DC0C18BF033202EBDC02C2F1200300FA4C
:1005200003FC20FA02F001FA03FE40EA0E0021FA71
:1005300002F11444BDE600BF70B54FF0FF0C4CF45F
:10054000E06C1CEA11541DBF1CEA135594EA0C0F11
:1005500095EA0C0F00F0DEF82C4481EA030621EA4C
:100560004C5123EA4C5350EA013518BF52EA033587
:1005700041F4801143F4801338D0A0FB02CE4FF039
:100580000005E1FB02E506F00042E0FB03E54FF069
:100590000006E1FB03569CF0000F18BF4EF0010E61
:1005A000A4F1FF04B6F5007F64F5407404D25FEA5D
:1005B0004E0E6D4146EB060642EAC62141EA555110
:1005C0004FEAC52040EA5E504FEACE2EB4F1FD0C52
:1005D00088BFBCF5E06F1ED8BEF1004F08BF5FEAD0
:1005E000500E50F1000041EB045170BD06F0004682
:1005F00046EA010140EA020081EA0301B4EB5C042F
:10060000C2BFD4EB0C0541EA045170BD41F4801126
:100610004FF0000E013C00F3AB8014F1360FDEBF4B
:10062000002001F0004170BDC4F10004203C35DA27
:100630000C341BDC04F11404C4F1200500FA05F3AA
:1006400020FA04F001FA05F240EA020001F000424B
:1006500021F0004110EBD37021FA04F642EB0601C1
:100660005EEA430E08BF20EAD37070BDC4F10C04EB
:10067000C4F1200500FA04F320FA05F001FA04F2AF
:1006800040EA020001F0004110EBD37041F100019B
:100690005EEA430E08BF20EAD37070BDC4F12005A6
:1006A00000FA05F24EEA020E20FA04F301FA05F20E
:1006B00043EA020321FA04F001F0004121FA04F2B6
:1006C00020EA020000EBD3705EEA430E08BF20EA86
:1006D000D37070BD94F0000F0FD101F000464000C0
:1006E00041EB010111F4801F08BF013CF7D041EA42
:1006F000060195F0000F18BF704703F00046520046
:1007000043EB030313F4801F08BF013DF7D043EA16
:100710000603704794EA0C0F0CEA135518BF95EACC
:100720000C0F0CD050EA410618BF52EA4306D1D153
:1007300081EA030101F000414FF0000070BD50EA72
:10074000410606BF1046194652EA430619D094EAFC
:100750000C0F02D150EA013613D195EA0C0F05D1E6
:1007600052EA03361CBF104619460AD181EA03013A
:1007700001F0004141F0FE4141F470014FF00000F2
:1007800070BD41F0FE4141F4780170BD70B54FF08D
:10079000FF0C4CF4E06C1CEA11541DBF1CEA13550D
:1007A00094EA0C0F95EA0C0F00F0A7F8A4EB0504EF
:1007B00081EA030E52EA03354FEA013100F08880E6
:1007C0004FEA03334FF0805545EA131343EA1263AF
:1007D0004FEA022245EA111545EA10654FEA002664
:1007E0000EF000419D4208BF964244F1FD0404F51D
:1007F000407402D25B084FEA3202B61A65EB030579
:100800005B084FEA32024FF480104FF4002CB6EB35
:10081000020E75EB030E22BFB61A754640EA0C00B5
:100820005B084FEA3202B6EB020E75EB030E22BFF5
:10083000B61A754640EA5C005B084FEA3202B6EB36
:10084000020E75EB030E22BFB61A754640EA9C00F5
:100850005B084FEA3202B6EB020E75EB030E22BFC5
:10086000B61A754640EADC0055EA060E18D04FEA83
:10087000051545EA16754FEA06164FEAC30343EA23
:1008800052734FEAC2025FEA1C1CC0D111F4801FF0
:100890000BD141EA00014FF000004FF0004CB6E7E9
:1008A00011F4801F04BF01430020B4F1FD0C88BF88
:1008B000BCF5E06F3FF6AFAEB5EB030C04BFB6EB93
:1008C000020C5FEA500C50F1000041EB045170BD86
:1008D0000EF0004E4EEA113114EB5C04C2BFD4EBB3
:1008E0000C0541EA045170BD41F480114FF0000E37
:1008F000013C90E645EA060E8DE60CEA135594EAB3
:100900000C0F08BF95EA0C0F3FF43BAF94EA0C0FB5
:100910000AD150EA01347FF434AF95EA0C0F7FF42A
:1009200025AF104619462CE795EA0C0F06D152EA7E
:1009300003353FF4FDAE1046194622E750EA410662
:1009400018BF52EA43067FF4C5AE50EA41047FF473
:100950000DAF52EA43057FF4EBAE12E74FF0FF3CD8
:1009600006E000BF4FF0010C02E000BF4FF0010CA9
:100970004DF804CD4FEA410C7FEA6C5C4FEA430C22
:1009800018BF7FEA6C5C1BD001B050EA410C0CBF71
:1009900052EA430C91EA030F02BF90EA020F0020D3
:1009A000704710F1000F91EA030F58BF994208BF3A
:1009B00090422CBFD8176FEAE37040F001007047F7
:1009C0004FEA410C7FEA6C5C02D150EA013C07D14E
:1009D0004FEA430C7FEA6C5CD6D152EA033CD3D099
:1009E0005DF8040B704700BF8446104662468C4693
:1009F0001946634600E000BF01B5FFF7B7FF0028C6
:100A000048BF10F1000F01BD4DF808EDFFF7F4FFEE
:100A10000CBF012000205DF808FB00BF4DF808ED79
:100A2000FFF7EAFF34BF012000205DF808FB00BF9C
:100A30004DF808EDFFF7E0FF94BF012000205DF8BE
:100A400008FB00BF4DF808EDFFF7CEFF94BF012073
:100A500000205DF808FB00BF4DF808EDFFF7C4FF6C
:100A600034BF012000205DF808FB00BF4FEA4102BF
:100A7000B2F1E04324BFB3F5001CDCF1FE5C0DD9FC
:100A800001F0004C4FEAC0024CEA5070B2F1004F46
:100A900040EB830008BF20F00100704711F0804F49
:100AA00021D113F13872BCBF01F00040704741F40E
:100AB00080114FEA5252C2F11802C2F1200C10FA12
:100AC0000CF320FA02F018BF40F001004FEAC123F6
:100AD0004FEAD32303FA0CFC40EA0C0023FA02F39A
:100AE0004FEA4303CCE77FEA625307D150EA013370
:100AF0001EBF4FF0FE4040F44000704701F0004040
:100B000040F0FE4040F40000704700BF53B94AB9BE
:100B1000002908BF00281CBF4FF0FF314FF0FF3005
:100B200000F0E2B8ADF1080C6DE904CE13F0F8FF67
:100B3000DDF804E0DDE9022304B0704700F1340180
:100B400091E838009C46A6464CF8045D90E8FF0FFB
:100B5000E54600BD90EC210B704700BF80EC210BF7
:100B6000704700BF90EC200B704700BF80EC200B5B
:100B7000704700BFD0EC200B704700BFC0EC200BCB
:100B8000704700BFF0EC0201F0EC0211F0EC022122
:100B9000F0EC0231F0EC0241F0EC0251F0EC0261B9
:100BA000F0EC0271F0EC0281F0EC0291F0EC02A1A9
:100BB000F0EC02B1F0EC02C1F0EC02D1F0EC02E199
:100BC000F0EC02F1704700BFE0EC0201E0EC021132
:100BD000E0EC0221E0EC0231E0EC0241E0EC0251F9
:100BE000E0EC0261E0EC0271E0EC0281E0EC0291E9
:100BF000E0EC02A1E0EC02B1E0EC02C1E0EC02D1D9
:100C0000E0EC02E1E0EC02F1704700BFB0FC0181D2
:100C1000B0FC0191B0FC01A1B0FC01B1704700BF74
:100C2000A0FC0181A0FC0191A0FC01A1A0FC01B1EC
:100C3000704700BFEC4600B52DE900502DE9FF1FBD
:100C40004FF000032DE90C0001A914F023FADDF8A0
:100C500040E012B0704700BFEC4600B52DE90050EF
:100C60002DE9FF1F4FF000032DE90C0001A914F03E
:100C70004DFADDF840E012B0704700BFEC4600B519
:100C80002DE900502DE9FF1F4FF000032DE90C0066
:100C900001A914F05DFADDF840E012B0704700BF22
:100CA000EC4600B52DE900502DE9FF1F4FF0000381
:100CB0002DE90C0001AB14F021FADDF840E012B090
:100CC000704700BFEC4600B52DE900502DE9FF1F2D
:100CD0004FF000032DE90C0001AA14F099FADDF899
:100CE00040E012B0704700BF704700BF0000000036
:100CF00000000000000000000000000000000000F4
:100D000002780B78012A28BF9A4240F0D8806DE91A
:100D1000044540EA0104CDE902676FF0000C4FEA98
:100D200044721AB380EA010414F0070F6BD100F08B
:100D3000070420F0070004F0030521F007014FEA43
:100D4000C505F0E8042314F0040FF1E804670CFA79
:100D500005F462EA040266EA04060BD063EA0403BF
:100D6000624667EA0407664604E000BFF0E8042331
:100D7000F1E8046782FA4CF582EA0604A4FA8CF4DE
:100D80006CBB83FA4CF583EA0705A5FA8CF595B997
:100D900050E9022351E9026782FA4CF582EA06041F
:100DA000A4FA8CF483FA4CF583EA0705A5FA8CF5CE
:100DB0002543DBD09CB92DBAB5FA85F424F007049D
:100DC00027FA04F1DDE9026723FA04F303F0FF00D8
:100DD00001F0FF01FDE80445A0EB0100704724BAD3
:100DE000B4FA84F424F0070426FA04F1DDE902677A
:100DF00022FA04F202F0FF0001F0FF01FDE80445D1
:100E0000A0EB0100704714F0030F3CD110F0030475
:100E100028D150F8082B51F8083B82FA4CF582EAA9
:100E20000305A5FA8CF55DB950F8042C51F8043C83
:100E300082FA4CF582EA0305A5FA8CF5002DE8D07C
:100E40002DBAB5FA85F424F0070423FA04F122FA46
:100E500004F202F0FF0001F0FF01FDE80445A0EB01
:100E6000010070474FEAC40420F0030050F8082B3B
:100E700021F0030151F8083B0CFA04F462EA040281
:100E800063EA0403C9E710F003041DD0A1EB0401D9
:100E900020F00300E40750F8042B06D012D28B7820
:100EA0005FFAA2F4E41A06D12BB1CB785FFAB2F460
:100EB000E41A00D133B920465DF8104B7047A2EB1D
:100EC0000300704701F1040150F8042BCC0721F016
:100ED000030151F8043B48D824D222F07F4482FA1F
:100EE0004CF594EA1325A5FA8CF50AD165B951F8A9
:100EF000043B84EA0204B4EB036F0ED150F8042BD8
:100F0000EBE74FEA132355E035F07F454DD10878E4
:100F1000FDE80445C0F1000070474FEA126203F09B
:100F2000FF0347E002EA1C4482FA4CF594EA1345B9
:100F3000A5FA8CF50AD165B951F8043B84EA02049C
:100F4000B4EB034F0CD150F8042BEBE74FEA1343FB
:100F500030E015EA1C4528D10B884FEA124229E0FF
:100F60004FEA124203EA1C4324E002F0FF0482FA33
:100F70004CF594EA1365A5FA8CF50AD165B951F8D8
:100F8000043B84EA0204B4EB032F09D150F8042B8C
:100F9000EBE74FEA13630DE015F0FF0F05D10B6887
:100FA0004FEA122223F07F4304E04FF00000FDE8F7
:100FB0000445704712BA1BBA82FA4CF482EA030461
:100FC000A4FA8CF5B5FA85F402FA04F203FA04F3F4
:100FD0004FEA1260FDE80445A0EB1360704700BFC4
:100FE00001F0FF01102A2BDB10F0070F08D010F8DA
:100FF000013B013A8B422DD010F0070F42B3F6D1DE
:10100000F0B441EA012141EA014122F007047FF0F6
:1010100000070023F0E80256083C85EA010586EA4D
:10102000010685FA47F5A3FA87F586FA47F6A5FA89
:1010300087F68EB9EED1F0BC01F0FF0102F0070295
:1010400032B110F8013B013A83EA010313B1F8D140
:101050000020704701387047002D06BF3546033821
:10106000073815F0010F07D1013015F4807F02BF5A
:10107000013015F4C03F0130F0BC0138704700BFAB
:10108000844641EA000313F003036DD1403A41D393
:1010900051F8043B40F8043B51F8043B40F8043B52
:1010A00051F8043B40F8043B51F8043B40F8043B42
:1010B00051F8043B40F8043B51F8043B40F8043B32
:1010C00051F8043B40F8043B51F8043B40F8043B22
:1010D00051F8043B40F8043B51F8043B40F8043B12
:1010E00051F8043B40F8043B51F8043B40F8043B02
:1010F00051F8043B40F8043B51F8043B40F8043BF2
:1011000051F8043B40F8043B51F8043B40F8043BE1
:10111000403ABDD2303211D351F8043B40F8043B81
:1011200051F8043B40F8043B51F8043B40F8043BC1
:1011300051F8043B40F8043B103AEDD20C3205D391
:1011400051F8043B40F8043B043AF9D2043208D089
:10115000D2071CBF11F8013B00F8013B01D30B88FB
:1011600003806046704700BF082A13D38B078DD0D9
:1011700010F003038AD0C3F10403D21ADB071CBFAB
:1011800011F8013B00F8013B80D331F8023B20F815
:10119000023B7BE7043AD9D3013A11F8013B00F84E
:1011A000013BF9D20B7803704B7843708B788370D6
:1011B00060467047000000000000000000000000D2
:1011C00030B490F800F020F007016FF0000C10F040
:1011D000070491F820F040F048804FF000046FF0D1
:1011E0000700D1E9002391F840F000F1080082FAED
:1011F0004CF2A4FA8CF283FA4CF3A2FA8CF34BBBB8
:10120000D1E9022382FA4CF200F10800A4FA8CF230
:1012100083FA4CF3A2FA8CF3E3B9D1E9042382FAFE
:101220004CF200F10800A4FA8CF283FA4CF3A2FA13
:101230008CF37BB9D1E9062301F1200182FA4CF24B
:1012400000F10800A4FA8CF283FA4CF3A2FA8CF3B2
:10125000002BC6D0002A04BF04301A4612BAB2FAD4
:1012600082F200EBD20030BC7047D1E9002304F0D9
:101270000305C4F100004FEAC50514F0040F91F80E
:1012800040F00CFA05F562EA05021CBF63EA0503AB
:1012900062464FF00004AAE74FEA410C7FEA6C5C1B
:1012A00002D150EA013C0AD14FEA430C7FEA6C5C60
:1012B00002D152EA033C02D14FF0000070474FF0D8
:1012C000010070474FEA410212F5001215D211D504
:1012D0006FF47873B3EB625212D94FEAC12343F033
:1012E000004343EA505311F0004F23FA02F018BFB5
:1012F000404270474FF00000704750EA013005D17E
:1013000011F0004008BF6FF0004070474FF0000040
:10131000704700BF0348044B834202D0034B03B124
:101320001847704770090020700900200000000075
:101330000548064B1B1AD90F01EBA301491002D037
:10134000034B03B118477047700900207009002053
:101350000000000010B5064C237843B9FFF7DAFF10
:10136000044B13B10448AFF300800123237010BD78
:10137000700900200000000028C3010808B5054BD3
:101380001BB105490548AFF30080BDE80840FFF7F1
:10139000CFBF00BF000000007409002028C301086F
:1013A00008B50E480E4B03600323436000228260A1
:1013B000C2604FF4102303614FF4001343610276BF
:1013C000012343768376C3760277437701F048F9A9
:1013D00000B908BD00F0D4FBFBE700BFB80900204E
:1013E0000064004008B50E480E4B036003234360C1
:1013F00000228260C2604FF4102303614FF4001397
:1014000043610276012343768376C376027743777E
:1014100001F026F900B908BD00F0B2FBFBE700BF00
:10142000900900200068004010B58AB000230593A1
:1014300006930793089309930368454A934204D09F
:10144000444A93423CD00AB010BD434A136801336A
:101450001360012B27D000240194404B1A6B42F0FB
:1014600008021A631B6B03F008030193019B03231B
:1014700005930222069208930923099305A9384887
:1014800001F094FF22460521132001F019FD1320DD
:1014900001F026FD22460521142001F011FD142043
:1014A00001F01EFDCFE7002300932C4B1A6C42F095
:1014B00000721A641B6C03F000730093009BCAE770
:1014C00000230293254B1A6C42F080621A641B6C55
:1014D00003F080630293029B1F4A13680133136079
:1014E000012B28D0002404941C4B1A6B42F00202FA
:1014F0001A631B6B03F002030493049B60230593A0
:1015000002230693032308930923099305A9154889
:1015100001F04CFF224605213F2001F0D1FC3F2085
:1015200001F0DEFC22460521412001F0C9FC4120EA
:1015300001F0D6FC87E700230393084B1A6C42F0B6
:1015400000721A641B6C03F000730393039BC9E7DA
:1015500000640040006800408C0900200038024010
:10156000000C02400004024010B582B00024009438
:10157000264B1A6B42F400121A631A6B02F4001223
:101580000092009A01941A6B42F480021A631B6B5A
:1015900003F480030193019B224605210C2001F0F6
:1015A0008FFC0C2001F09CFC22460521392001F023
:1015B00087FC392001F094FC224605213A2001F0F5
:1015C0007FFC3A2001F08CFC224605213B2001F0F3
:1015D00077FC3B2001F084FC22460521442001F0E9
:1015E0006FFC442001F07CFC22460521452001F0DF
:1015F00067FC452001F074FC22460521462001F0DD
:101600005FFC462001F06CFC02B010BD00380240C7
:1016100008B5012003F0ABFDFBE708B5012003F09E
:10162000A6FDFBE708B5012003F0A1FDFBE70000E4
:1016300008B5894A0121084603F0BFFD874B1860B1
:10164000874A0121084603F0B8FD864B1860864A98
:101650000121084603F0B1FD844B1860844A012142
:10166000084603F0AAFD834B1860834A012108460F
:1016700003F0A3FD814B1860814A0121084603F065
:101680009CFD804B1860804A0121084603F095FDBF
:101690007E4B18607E4A0121084603F08EFD7D4B8B
:1016A00018607D4A0121084603F087FD7B4B1860D6
:1016B0007B4A0121084603F080FD7A4B18607A4A84
:1016C0000121084603F079FD784B1860784A012122
:1016D000084603F072FD774B1860774A01210846EF
:1016E00003F06BFD754B1860754A0121084603F045
:1016F00064FD744B1860744A0121084603F05DFDD7
:10170000724B1860724A0121084603F056FD714B76
:101710001860714A0321084603F04FFD6F4B1860B3
:101720006F4A0321084603F048FD6E4B18606E4A6D
:101730000C21202003F0FDFD6C4B18606C4A0C213D
:10174000202003F0F6FD6B4B18606B4A00216B48BC
:1017500003F0AEFC6A4B18606A4A00216A4803F045
:10176000A7FC6A4B18606A4A00216A4803F0A0FC93
:10177000694B1860694A0021694803F099FC694B7C
:101780001860694A0021694803F092FC684B1860B0
:10179000684A0021684803F08BFC684B1860684A6F
:1017A0000021684803F084FC674B1860674A0021F9
:1017B000674803F07DFC674B1860674A0021674863
:1017C00003F076FC664B1860664A0021664803F019
:1017D0006FFC664B1860664A0021664803F068FC9F
:1017E000654B1860654A0021654803F061FC654B54
:1017F0001860654A0021654803F05AFC644B186084
:10180000644A0021644803F053FC644B1860644A46
:101810000021644803F04CFC634B1860634A0021CC
:10182000634803F045FC634B1860634A002163483A
:1018300003F03EFC624B1860624A0021624803F0EC
:1018400037FC624B1860624A0021624803F030FCAA
:10185000614B186008BD00BF80D20108240A002037
:1018600070D20108200A002060D201081C0A002062
:1018700050D20108180A002040D20108140A0020A2
:1018800030D20108100A002020D201080C0A0020E2
:1018900010D20108080A002000D20108040A002022
:1018A000F0D10108000A0020E0D10108FC09002065
:1018B000D0D10108F8090020C0D10108F4090020A6
:1018C000B0D10108F0090020A0D10108EC090020E6
:1018D00090D10108E809002080D10108E409002026
:1018E00070D10108E0090020A8D201082C0A0020CC
:1018F00090D20108280A002048D5010811160008D6
:10190000780A002024D501081B160008740A00205C
:1019100000D50108B1D00008700A0020DCD401080D
:101920001DCB00086C0A0020B8D4010825CF0008A0
:10193000680A002094D40108B1780008640A0020E5
:1019400070D4010815790008600A00204CD4010801
:10195000FDC900085C0A002028D40108E5CF000872
:10196000580A002004D40108DDCE0008540A0020E3
:10197000E0D30108D1CC0008500A0020BCD30108F4
:101980002DCD00084C0A002098D3010891CB000807
:10199000480A002074D301085DCC0008440A0020E6
:1019A00050D3010881CD0008400A00202CD3010843
:1019B000EDCD00083C0A002008D3010821D0000822
:1019C000380A0020E4D2010825160008340A002055
:1019D000C0D20108E9CB0008300A00202DE9F0430D
:1019E0008FB0002409940A940B940C940D940194E4
:1019F0004E4B1A6B42F002021A631A6B02F002029B
:101A00000192019A02941A6B42F040021A631A6B17
:101A100002F040020292029A03941A6B42F0010211
:101A20001A631A6B02F001020392039A04941A6B70
:101A300042F008021A631A6B02F008020492049A38
:101A400005941A6B42F004021A631A6B02F0040246
:101A50000592059A06941A6B42F480721A631A6B07
:101A600002F480720692069A07941A6B42F0800282
:101A70001A631A6B02F080020792079A08941A6B95
:101A800042F010021A631B6B03F010030893089BCB
:101A9000DFF8A49022464FF4E051484601F07CFD67
:101AA000234E01221021304601F076FDDFF88C80B4
:101AB00001224FF42061404601F06EFD1D4F0122CE
:101AC0001146384601F068FD4FF4E05309930125B3
:101AD0000A950B940C9409A9484601F067FC0995F6
:101AE0000A940B9509A9304601F060FC1023099374
:101AF0000A950B9502240C9409A9304601F056FC76
:101B00004FF4206309930A950B9503230C9309A9BD
:101B1000404601F04BFC09950A950B950C9409A9D8
:101B2000384601F043FC0FB0BDE8F08300380240B6
:101B30000000024000040240001C0240001002406D
:101B400008B50748074B0360042343604FF41C7338
:101B5000836001F027FD00B908BD00F011F8FBE734
:101B60007C0A00200030004008B50268034B9A420E
:101B700000D008BD00F062FDFBE700BF001400408C
:101B800072B6FEE700B595B03022002108A816F025
:101B900095FB002303930493059306930793019306
:101BA000214A116C41F080511164126C02F0805294
:101BB0000192019A02931D4B1A6842F480421A6006
:101BC0001B6803F480430293029B092308934FF49C
:101BD0008033099301230D9302230E934FF4800267
:101BE0000F9206221092A8221192129304231393AB
:101BF00008A801F003FD98B90F230393022304936F
:101C0000002305934FF4A05306934FF4805307939A
:101C1000052103A801F042FF20B915B05DF804FBCF
:101C2000FFF7AEFFFFF7ACFF003802400070004046
:101C300008B500F0E9FCFFF7A5FFFFF7CFFEFFF7BF
:101C400093FCFFF7ADFBFFF7CDFB00F009FB00F0C5
:101C500021FB00F03BFB00F00FF800F031F800F042
:101C6000BFFAFFF76DFF07F04BF903F0E9F9FFF753
:101C7000DFFC03F0F7F9FEE708B50F480F4B0360F0
:101C80004FF48273436000238360C36002220261C9
:101C9000012242614FF4007282613822C261036204
:101CA000436283620A23C36201F0ECFF00B908BDFE
:101CB000FFF766FFFBE700BFA00B002000300140EC
:101CC00008B50F480F4B03604FF482734360002345
:101CD0008360C36002220261012242614FF40072FC
:101CE00082613822C2610362436283620A23C36253
:101CF00001F0C8FF00B908BDFFF742FFFBE700BFD6
:101D0000480B0020003800402DE9F0418AB0002344
:101D10000593069307930893099303684F4A9342E8
:101D200005D04F4A934275D00AB0BDE8F081044611
:101D3000002500954B4B5A6C42F480525A645A6C01
:101D400002F480520092009A01951A6B42F002024E
:101D50001A631A6B02F002020192019A02951A6B41
:101D600042F001021A631B6B03F001030293029B12
:101D7000182305934FF00208CDF818800327089721
:101D80000526099605A9384801F010FB8023059324
:101D9000CDF8188007950897099605A9334801F0F2
:101DA00005FB3348334B03604FF0C06343608560ED
:101DB000C5604FF48063036145618561C5614FF47F
:101DC00040330362456201F00BF9E8B9284BE36444
:101DD0009C632948294B03604FF0C0634360402354
:101DE00083600023C3604FF48062026143618361BA
:101DF000C3614FF440320262436201F0F1F830B93E
:101E00001D4BA3649C638FE7FFF7BAFEDEE7FFF785
:101E1000B7FEF5E700210391124B1A6C42F48042A1
:101E20001A641A6C02F480420392039A04911A6BAA
:101E300042F480721A631B6B03F480730493049B57
:101E40000E23059302230693032308930523099386
:101E500005A90B4801F0AAFA66E700BF003001406F
:101E600000380040003802400004024000000240F8
:101E7000E80A002040640240880A002058640240BA
:101E80000020024000B583B0002200920D4B596C37
:101E900041F480415964596C01F4804100910099EA
:101EA0000192196C41F0805119641B6C03F080534E
:101EB0000193019B0F216FF0010001F001F803B0C5
:101EC0005DF804FB0038024030B589B004460023B9
:101ED0000193214B1A6C42F020021A641B6C03F030
:101EE00020030193019B02A903A801F0ADFE069B0C
:101EF000CBB901F089FE0346184AA2FB03239B0CD1
:101F0000013B1748174A026040F2E732C260436063
:101F1000002303618360836102F050F9054630B10C
:101F2000284609B030BD01F06FFE4300E4E70C48DD
:101F300001F0E0FF05460028F2D1372000F0D0FF85
:101F40000F2C01D90125EBE700222146372000F0B4
:101F5000B7FF054B1C60E3E70038024083DE1B43FC
:101F6000F80B00200014004010000020FEE7FEE700
:101F7000FEE7FEE7FEE7704708B5024801F028F9E2
:101F800008BD00BF500D002008B5024800F01CFE3F
:101F900008BD00BFB809002008B5024800F014FED3
:101FA00008BD00BFB809002008B5024801F0EAFFEB
:101FB00008BD00BF480C002008B5024802F00AFE28
:101FC00008BD00BF600F002008B5024802F002FE05
:101FD00008BD00BFE80E002008B5024801F0D2FF9E
:101FE00008BD00BFF80B002008B5024801F0F0F86A
:101FF00008BD00BFF00C002008B5024801F0E8F869
:1020000008BD00BFE80A002008B5024801F0E0F86A
:1020100008BD00BF880A002008B5024800F0D4FDC2
:1020200008BD00BF9009002008B5024800F0CCFDB3
:1020300008BD00BF9009002008B5024801F0C8F8AB
:1020400008BD00BF100E002008B5024801F0C0F81E
:1020500008BD00BF900C002008B5024801F0B8F898
:1020600008BD00BFB00D002008B5024802F0B2FD67
:1020700008BD00BF700E00200120704708B516F0A3
:102080003BFB162303604FF0FF3008BD08B54FF04F
:10209000FF31FFF7F3FFFEE770B50C46164600254B
:1020A00006E0AFF30080214601F8010B01350C4634
:1020B000B542F6DB304670BD70B50C4616460025BD
:1020C00004E014F8010BAFF300800135B542F8DBF2
:1020D000304670BD4FF0FF3070474FF400534B60F7
:1020E00000207047012070470020704710B503465C
:1020F0000C4A0D490D48006840B10C480068034483
:10210000521A934206D8094A136010BD0748084C7A
:102110000460F2E716F0F0FA0C2303604FF0FF3092
:10212000F3E700BF0000022000040000440C002080
:10213000D88C0120034AD2F8883043F47003C2F8E7
:102140008830704700ED00E002680E4B9A4200D0E4
:10215000704700B583B00022019203F50C33196C6F
:1021600041F0040119641B6C03F004030193019B0B
:1021700005211E2000F0A4FE1E2000F0B1FE03B0D9
:102180005DF804FB0008004000B587B00023019310
:10219000029303930493059302680E4B9A4202D074
:1021A00007B05DF804FB002300930B4B1A6B42F061
:1021B00008021A631B6B03F008030093009B4FF4A3
:1021C0008043019302230293059301A9034801F080
:1021D000EDF8E5E70008004000380240000C02403E
:1021E00000B58BB0002308930993019302930393E6
:1021F00004930593069307931748184A02604360B7
:10220000836045F20722C2600361836102F002F835
:10221000C8B900230893099308A90F4802F05EF992
:10222000A0B960230193002302930393059308222E
:1022300001A9094802F052F858B90748FFF7A4FF6E
:102240000BB05DF804FBFFF79BFCE2E7FFF798FC9F
:10225000E7E7FFF795FCF0E7480C00200008004096
:1022600008B50A480A4B03604FF4E123436000239A
:102270008360C36003610C2242618361C36102F029
:1022800011FE00B908BDFFF77BFCFBE7600F0020E3
:102290000010014008B50A480A4B03600A4B43602E
:1022A00000238360C36003610C2242618361C361C8
:1022B00002F0F8FD00B908BDFFF762FCFBE700BFC4
:1022C000E80E002000480040A086010008B50A483A
:1022D0000A4B03604FF4E133436000238360C36023
:1022E00003610C2242618361C36102F0DBFD00B92E
:1022F00008BDFFF745FCFBE7700E0020001401400D
:102300002DE9F0418CB0044600230793089309930C
:102310000A930B930368954A934209D0944A9342D7
:102320007DD0944A934200F0C1800CB0BDE8F081AA
:1023300000250095904B5A6C42F010025A645A6C7A
:1023400002F010020092009A01951A6B42F002020C
:102350001A631A6B02F002020192019A02951A6B3B
:1023600042F001021A631B6B03F001030293029B0C
:10237000802307934FF00208CDF8208003270A97A7
:1023800007260B9607A97D4801F010F84FF400735B
:102390000793CDF8208009950A970B9607A97848EE
:1023A00001F004F87748784B03604FF00063436016
:1023B0008560C5604FF48063036145618561C561D7
:1023C0000562456200F00CFE18BB6E4BE3639C6334
:1023D0006E486F4B03604FF000634360402383609F
:1023E0000023C3604FF48062026143618361C36173
:1023F0000362436200F0F4FD70B9644BA3639C6315
:1024000000220521252000F05BFD252000F068FD5D
:102410008BE7FFF7B5FBD8E7FFF7B2FBEDE7002549
:102420000395554B1A6C42F480221A641A6C02F41C
:1024300080220392039A04951A6B42F004021A63F5
:102440001B6B03F004030493049B4FF44063079356
:102450000223089303230A9307230B9307A94D48EC
:1024600000F0A4FF4C484D4B03604FF00063436005
:102470008560C5604FF48063036145618561C56116
:102480004FF400330362456200F0AAFD58B9424B95
:10249000E3639C6300220521272000F011FD272023
:1024A00000F01EFD41E7FFF76BFBF0E70025059507
:1024B000314B5A6C42F020025A645A6C02F02002EE
:1024C0000592059A06951A6B42F040021A631B6B3F
:1024D00003F040030693069B4FF4844307930223C3
:1024E000089303230A9308230B9307A92C4800F0B1
:1024F0005DFF2C482C4B03604FF0206343608560E8
:10250000C5604FF48063036145618561C561056203
:10251000456200F065FD18BB224BE3639C632348D2
:10252000234B03604FF0206343604023836000230C
:10253000C3604FF48062026143618361C3610362DF
:10254000436200F04DFD70B9184BA3639C630022F9
:102550000521472000F0B4FC472000F0C1FCE4E670
:10256000FFF70EFBD8E7FFF70BFBEDE7001001408C
:1025700000480040001401400038024000040240BE
:1025800000000240100E002088640240B00D0020C0
:10259000B864024000080240500D0020286002404C
:1025A00000180240F00C002028640240900C00202B
:1025B000A0640240DFF834D0FFF7BCFD0C480D49A1
:1025C0000D4A002302E0D458C4500433C4188C428E
:1025D000F9D30A4A0A4C002301E013600432A242F4
:1025E000FBD316F08FF8FFF723FB704700000220A3
:1025F0000000002070090020C4F1010870090020CB
:10260000D88C0120FEE7000008B50B4B1A6842F495
:1026100000721A601A6842F480621A601A6842F402
:1026200080721A60032000F039FC0520FFF74CFC93
:10263000FFF728FC002008BD003C0240034A116857
:10264000034B1B780B441360704700BFD80F00206A
:102650000C000020014B1868704700BFD80F002005
:10266000002800F0A18038B5044690F82030D3B19E
:102670002268136843F001031360FFF7EBFF054680
:1026800023685A6812F0010F10D1FFF7E3FF401BD7
:102690000A28F5D9636A43F400336362052384F89A
:1026A0002030012038BDFEF7BFFEE1E71A6822F0B6
:1026B00002021A60FFF7CEFF054623685A6812F03F
:1026C000020F0DD0FFF7C6FF401B0A28F5D9636A39
:1026D00043F400336362052384F820300120E1E7EE
:1026E000227E012A3DD01A6822F080021A60637EA1
:1026F000012B3BD02268136823F040031360A37EB4
:10270000012B39D02268136823F020031360E37E85
:10271000012B37D02268136843F010031360237F26
:10272000012B35D02268136823F008031360637F00
:10273000012B33D02268136823F004031360A368CD
:10274000E268134322691343626913436268013AE2
:1027500021681343CB6100206062012384F820309C
:10276000A0E71A6842F080021A60C0E72268136886
:1027700043F040031360C2E72268136843F020036C
:102780001360C4E72268136823F010031360C6E7E0
:102790002268136843F008031360C8E722681368CF
:1027A00043F004031360CAE70120704790F820301B
:1027B000013BDBB2012B05D9436A43F4802343621A
:1027C0000120704730B5464BD3F8002242F0010299
:1027D000C3F80022D3F8002222F47C52C3F800226E
:1027E000D3F80022486A42EA0022C3F800224A696C
:1027F00002F01F02012000FA02F2D3F81C026FEA75
:10280000020C20EA0200C3F81C02CB69C3B9344BA6
:10281000D3F80C020CEA0000C3F80C028C8848695B
:10282000CD6844EA0544483043F830408C68088855
:1028300040EA04404C6904F1480E03EBCE035860B3
:10284000CB69012B1ED08B69002B33D12448D0F8E3
:1028500004320CEA0303C0F804320B698BBB204836
:10286000D0F814320CEA0303C0F814320B6A012BBF
:102870002ED01B4AD2F8003223F00103C2F80032F6
:10288000002030BD164BD3F80C021043C3F80C02E5
:102890008C8848690D6844EA0544483043F8304064
:1028A00088894C698D6840EA0540483403EBC403CD
:1028B0005860C8E70A48D0F804321343C0F804321D
:1028C000CBE70748D0F814321343C0F81432CDE7F1
:1028D0000349D1F81C321343C1F81C32C9E700BFC9
:1028E0000064004070B5044690F82050EDB2012D10
:1028F00006D0436A43F4002343620125284670BD95
:10290000022380F820300268136823F0010313606B
:10291000FFF7A0FE064623685B6813F0010F0CD09A
:10292000FFF798FE831B0A2BF5D9636A43F4003343
:102930006362052384F82030E0E700256562DDE767
:1029400030B590F820C00468A4680CF1FF3C5FFA31
:102950008CFCBCF1010F62D814F0E05F59D0C4F3D5
:10296000016C012404FA0CF41C608B68002B3DD12F
:102970000D68CB68046843EA45550CF118031B0148
:10298000E55003680C690CF1180E03EB0E135C6044
:102990000B7D012B35D0D17993791B0443EA016378
:1029A000517943EA012314790168234301EB0C11A7
:1029B000C1F88C31D17893781B0443EA01635178D4
:1029C00043EA0123117802680B4302EB0C12C2F8B0
:1029D000883102680CF1180C4FEA0C1C52F80C30CC
:1029E00043F0010342F80C3000201DE04C6843EA3C
:1029F000C403CC6823430CF11804240105682B514F
:102A0000BFE7036803EB0E13596841F48071596006
:102A1000C1E7436A43F400134362012004E0436AC0
:102A200043F480234362012030BD90F820C00CF1B4
:102A3000FF3C5FFA8CFCBCF1010F00F2A58030B4C2
:102A400051B90468E46814F0030F10D1436A43F4E9
:102A50000013436201207EE00468246914F0030F30
:102A600005D1436A43F400134362012073E0056813
:102A700001F11B0424012C5904F004049460002C7F
:102A80006BD1056801F11B0424012C59640D1460FD
:102A9000046801F11B0C4FEA0C1C54F80C4004F0C4
:102AA0000204D4600468A444DCF8045015F0080F54
:102AB0005BD008241461046801F11B0C04EB0C14B6
:102AC0006468C4F307249461046804EB0C1464681C
:102AD000240C5461026802EB0112D2F8B8211A707A
:102AE000026802EB0112D2F8B821C2F307225A7031
:102AF000026802EB0112D2F8B821C2F307429A70C1
:102B0000026802EB0112D2F8B821120EDA700268E4
:102B100002EB0112D2F8BC211A71026802EB011219
:102B2000D2F8BC21C2F307225A71026802EB0112EB
:102B3000D2F8BC21C2F307429A71026802EB01127B
:102B4000D2F8BC21120EDA71C1B90268D36843F021
:102B50002003D360002030BC7047056801F11B04DE
:102B600024012C59E408546092E701F11B0504EBA1
:102B70000514646804F00F0414619CE7026813698B
:102B800043F020031361E5E7436A43F48023436283
:102B90000120704790F82030013BDBB2012B05D9B2
:102BA000436A43F4802343620120704702685369FB
:102BB0000B43536100207047704770477047704760
:102BC00070477047704770472DE9F84F0546036816
:102BD0005C69D3F804809F68D3F80CA0D3F81090F8
:102BE000D3F818B014F001063BD017F0010616D048
:102BF00001229A6017F0020F08D117F0040F0CD1D0
:102C000017F0080606D04FF4805608E004F0F2FEF4
:102C1000002604E0FFF7D0FF01E04FF4006617F450
:102C2000807F0DD02B684FF480729A6017F4007F7C
:102C300040F0968017F4806F00F0968046F40056BE
:102C400017F4803F0DD02B684FF480329A6017F450
:102C5000003F40F0938017F4802F00F0938046F4FB
:102C6000004614F0080F07D01AF0100F04D046F4F5
:102C700000762B681022DA6014F0040F03D01AF0EB
:102C8000080F40F0898014F0020F05D02B68DB6834
:102C900013F0030F40F0878014F0400F07D019F0B5
:102CA000100F04D046F480662B6810221A6114F0CD
:102CB000200F02D019F0080F79D114F0100F04D0B2
:102CC0002B681B6913F0030F78D114F4003F02D076
:102CD00018F0100F76D114F4803F02D018F0080FCE
:102CE00077D114F4004F37D018F0040F31D014F41A
:102CF000807F04D01BF0010F01D046F0010614F4D0
:102D0000007F04D01BF0020F01D046F0020614F43D
:102D1000806F04D01BF0040F01D046F0040614F4B9
:102D2000006F16D01BF0700B13D0BBF1400F66D0B4
:102D300056D8BBF1200F5CD0BBF1300F5CD0BBF19B
:102D4000100F01D146F008062A68936923F070033A
:102D500093612B6804225A60002E56D1BDE8F88F8B
:102D6000284604F04BFE6BE717F4006F02D046F4E0
:102D7000804665E72846FFF720FF61E7284604F014
:102D800041FE6EE717F4002F02D046F4803668E764
:102D90002846FFF713FF64E72B680822DA6028460D
:102DA000FFF70DFF6FE7284604F040FE74E72B683D
:102DB00008221A612846FFF703FF7EE7284604F041
:102DC00053FE82E72B6810225A602846FFF7F9FE6F
:102DD00081E72B6808225A602846FFF7F3FE80E758
:102DE000BBF1500F0ED0BBF1600FADD146F4807631
:102DF000AAE746F01006A7E746F02006A4E746F04B
:102E00004006A1E746F080069EE76B6A33436B629B
:102E10002846FFF7D8FEA1E7002807DB00F01F02D5
:102E2000400901239340024A42F82030704700BF16
:102E300000E100E0002808DB0901C9B200F16040B0
:102E400000F5614080F80013704700F00F000901A1
:102E5000C9B2014B1954704714ED00E000B500F001
:102E60000700C0F1070CBCF1040F28BF4FF0040CA1
:102E7000031D062B0FD9C31E4FF0FF3E0EFA0CF0B8
:102E800021EA000199400EFA03FE22EA0E0241EA0D
:102E900002005DF804FB0023EEE70000074AD36858
:102EA00023F4E0631B041B0C000200F4E060034306
:102EB00043F0BF6343F40033D360704700ED00E09C
:102EC00010B50446054BD868C0F30220FFF7C6FFD3
:102ED00001462046FFF7AEFF10BD00BF00ED00E049
:102EE00008B5FFF799FF08BD30B405682C6824F4D5
:102EF00080242C60046863608368402B05D00368DD
:102F000099600368DA6030BC704703689A600368B0
:102F1000D960F8E710B40368D9B210390A4AA2FBA5
:102F200001421209094CA25CC2655F2907D96FF3FF
:102F3000090304338365806D5DF8044B70476FF3BC
:102F400009038365F7E700BFABAAAAAA84D50108E5
:102F5000836A826992B9012B0AD0022B02D00BB18D
:102F600000207047C36A13F0807F28D1002070478B
:102F7000C36AB3F1C07F24D000207047B2F5005F70
:102F800009D0022B25D9032B25D1C36A13F0807FEA
:102F900023D100207047032B03D8DFE803F014048B
:102FA000140A00207047C36A13F0807F0DD10020FF
:102FB0007047C36AB3F1C07F09D000207047012079
:102FC00070470120704701207047012070470120A1
:102FD00070470120704700207047012070470000B3
:102FE00070B50446FFF736FB002C5BD00546022384
:102FF00084F83530002384F834302268136823F0D5
:103000000103136023681A6812F0010F0AD0FFF75A
:1030100021FB431B052BF5D920236365032084F88E
:10302000350070BD1A68204911406268A0680243EB
:10303000E06802432069024360690243A0690243D9
:10304000E0690243206A02430A43616A04291ED0F0
:103050001A602668756925F00705636A1D43042B0D
:1030600007D1A36A1D43E36A1BB12046FFF770FF37
:1030700090B975612046FFF74DFFE26D3F23934005
:10308000836000206065012384F83530C9E7E16A78
:10309000206B01430A43DBE740236365012084F88A
:1030A0003500BEE70120BCE73F8010F038B504468C
:1030B000856D90F8340001282BD0012084F834006D
:1030C00094F83500C0B2012804D0002384F83430CD
:1030D000022038BD022084F83500002060652046BB
:1030E000FFF702FFE26D3F239340AB602268136855
:1030F00043F016031360236C23B12268136843F076
:10310000080313602268136843F001031360002072
:10311000DFE70220DDE770B50446866DFFF79AFA17
:1031200094F83530DBB2022B06D080236365002390
:1031300084F83430012070BD05462268136823F0FE
:10314000160313602268536923F080035361236CD4
:10315000E3B12268136823F0080313602268136840
:1031600023F00103136023681B6813F0010F11D0D3
:10317000FFF770FA431B052BF5D920236365032065
:1031800084F83500002384F83430D4E7A36C002B96
:10319000DFD1E3E7E26D3F239340B360012384F87E
:1031A0003530002084F83400C5E790F83530DBB2C4
:1031B000022B03D08023436501207047052380F84C
:1031C00035300268136823F0010313600020704754
:1031D000F0B583B0044600230193724B1D68724B17
:1031E000A3FB0535AD0A876D3E68C26D0823934089
:1031F000334210D003681A6812F0040F0BD01A681B
:1032000022F004021A60C26D08239340BB60436D34
:1032100043F001034365E26D01239340334209D03B
:103220002268526912F0800F04D0BB60636D43F0D6
:1032300002036365E26D04239340334209D02268A0
:10324000126812F0020F04D0BB60636D43F00403F8
:103250006365E26D10239340334224D022681268E4
:1032600012F0080F1FD0BB6023681A6812F4802F79
:103270000DD01B6813F4002F04D1236C9BB12046A2
:10328000984710E0A36C73B1204698470BE01A688A
:1032900012F4807F03D11A6822F008021A60236CAE
:1032A0000BB120469847E26D20239340334255D01E
:1032B0002268126812F0100F50D0BB6094F83530BD
:1032C000DBB2052B0ED023681A6812F4802F33D09E
:1032D0001B6813F4002F2AD1636C002B3ED02046CC
:1032E00098473BE02268136823F0160313602268B6
:1032F000536923F080035361236CA3B122681368E0
:1033000023F008031360E26D3F239340BB60012369
:1033100084F83530002384F83430236D002B3FD0FF
:10332000204698473CE0A36C002BE7D1EBE7E36B2A
:10333000A3B12046984711E01A6812F4807F09D1A2
:103340001A6822F010021A60012384F83530002335
:1033500084F83430E36B0BB120469847636DFBB1C2
:10336000636D13F0010F17D0052384F83530226800
:10337000136823F001031360019B01330193AB42F7
:1033800004D823681B6813F0010FF5D1012384F8DA
:103390003530002384F83430E36C0BB12046984775
:1033A00003B0F0BD08000020B5814E1B00230F2B99
:1033B00000F2E98070B582B065E085684FEA430E9F
:1033C000032404FA0EF425EA0405CC6804FA0EF48A
:1033D0002C438460446824EA02044A68C2F3001261
:1033E0009A40224342605CE0DC08083450F8242014
:1033F00003F00705AD004FF00F0E0EFA05FE22EAAE
:103400000E0E0A69AA4042EA0E0240F824205CE04F
:10341000072200E0002202FA0EF22A4302345A4D3B
:1034200045F82420594A94686FEA0C0224EA0C05F6
:103430004E6816F4801F01D04CEA0405534CA56079
:10344000E46802EA04054E6816F4001F01D04CEA55
:1034500004054E4CE560646802EA04054E6816F403
:10346000003F01D04CEA0405484C656024682240C6
:103470004D6815F4803F01D04CEA0402434C2260B1
:1034800001330F2B7DD801229A400C6804EA020C0C
:1034900032EA0404F4D14C6804F00304013C012C2A
:1034A0008BD94A6802F00302032A09D0C4685D0080
:1034B0000322AA4024EA02048A68AA402243C26086
:1034C0004A6802F00302022A8ED004684FEA430ED3
:1034D000032202FA0EF224EA02044A6802F003020E
:1034E00002FA0EF2224302604A6812F4403FC7D04B
:1034F00000220192264A546C44F480445464526C75
:1035000002F480420192019A9C08A51C1E4A52F8BE
:10351000255003F0030E4FEA8E0E0F2202FA0EF230
:1035200025EA02051B4A90423FF474AF02F580621F
:1035300090421AD002F58062904218D002F5806263
:10354000904216D002F58062904214D002F580625B
:10355000904212D002F58062904210D002F5806253
:1035600090423FF455AF082255E7012253E702226B
:1035700051E703224FE704224DE705224BE70622DD
:1035800049E702B070BD704700380140003C01407F
:1035900000380240000002400AB18161704709040E
:1035A0008161704740B338B5044603684CF6CC429D
:1035B0001A60036845F255521A60036842685A60FF
:1035C000036882689A60FFF745F805462368DA6861
:1035D00012F0030F0BD0FFF73DF8401B3128F5D94F
:1035E0002368DB6813F0030FF0D0032003E04AF6F2
:1035F000AA221A60002038BD01207047002800F080
:10360000E08170B582B00446036813F0010F3BD02F
:103610009F4B9B6803F00C03042B2CD09C4B9B68A6
:1036200003F00C03082B21D06368B3F5803F4FD023
:10363000B3F5A02F52D0964B1A6822F480321A604C
:103640001A6822F480221A606368002B50D0FFF7BA
:1036500001F805468E4B1B6813F4003F14D1FEF7AA
:10366000F9FF401B6428F5D90320B1E1884B5B6862
:1036700013F4800FD8D0864B1B6813F4003F03D09F
:103680006368002B00F09F81236813F0020F54D071
:103690007F4B9B6813F00C0F3ED07D4B9B6803F073
:1036A0000C03082B33D0E368002B68D0794B012240
:1036B0001A60FEF7CFFF0546754B1B6813F0020F2B
:1036C00054D1FEF7C7FF401B0228F5D903207FE144
:1036D0006F4A136843F480331360B5E76C4B1A6884
:1036E00042F480221A601A6842F480321A60ABE712
:1036F000FEF7B0FF0546664B1B6813F4003FC3D0CE
:10370000FEF7A8FF401B6428F5D9032060E1604B59
:103710005B6813F4800FC6D15D4B1B6813F0020F7A
:1037200003D0E368012B40F05081594A136823F01D
:10373000F803216943EAC1031360236813F0080FFB
:1037400042D063696BB3534B0122C3F8802EFEF75E
:1037500081FF05464E4B5B6F13F0020F34D1FEF72D
:1037600079FF401B0228F5D9032031E1484A13684C
:1037700023F0F803216943EAC1031360DDE7454BF9
:1037800000221A60FEF766FF0546414B1B6813F0E6
:10379000020FD2D0FEF75EFF401B0228F5D90320AE
:1037A00016E13C4B0022C3F8802EFEF753FF05467E
:1037B000374B5B6F13F0020F06D0FEF74BFF401B39
:1037C0000228F5D9032003E1236813F0040F77D012
:1037D0002F4B1B6C13F0805F33D1002301932C4BD4
:1037E0001A6C42F080521A641B6C03F080530193F0
:1037F000019B0125284B1B6813F4807F23D0A3680D
:10380000012B34D0052B38D0214B1A6F22F0010246
:103810001A671A6F22F004021A67A368002B3DD0C2
:10382000FEF718FF06461A4B1B6F13F0020F46D126
:10383000FEF710FF801B41F288339842F3D9032032
:10384000C6E00025D6E7144A136843F4807313607A
:10385000FEF700FF0646104B1B6813F4807FCED1A5
:10386000FEF7F8FE801B0228F5D90320B0E0084AD5
:10387000136F43F001031367CFE7054B1A6F42F054
:1038800004021A671A6F42F001021A67C5E700BF07
:10389000003802400000474200700040FEF7DAFEA8
:1038A0000646524B1B6F13F0020F08D0FEF7D2FEF4
:1038B000801B41F288339842F3D9032088E0EDB9A8
:1038C000A369002B00F08380484A926802F00C0242
:1038D000082A51D0022B17D0454B00221A66FEF75A
:1038E000B9FE0446414B1B6813F0007F42D0FEF73F
:1038F000B1FE001B0228F5D9032069E03B4A136C96
:1039000023F080531364DBE7394B00221A66FEF77D
:10391000A1FE0546354B1B6813F0007F06D0FEF76D
:1039200099FE401B0228F5D9032051E0E369226A81
:103930001343626A43EA8213A26A5208013A43EAD5
:103940000243E26A43EA0263284A5360284B012299
:103950001A66FEF77FFE0446244B1B6813F0007FB7
:1039600006D1FEF777FE001B0228F5D903202FE0D1
:1039700000202DE000202BE0012B2BD01B4B5B689F
:1039800003F48001E269914226D103F03F02216AEB
:103990008A4223D1616A47F6C0721A40B2EB811F96
:1039A0001ED103F44031A26A5208013AB1EB024F32
:1039B00018D103F07063E26AB3EB026F14D10020F8
:1039C00006E001207047012002E0012000E0002015
:1039D00002B070BD0120FBE70120F9E70120F7E705
:1039E0000120F5E70120F3E70120F1E7003802406C
:1039F0000000474208B5264B9B6803F00C03042BDC
:103A000041D0082B41D1224B5A6802F03F025B683B
:103A100013F4800F12D01E4B5968C1F388111D4852
:103A20000023A1FB0001FDF771F8194B5B68C3F39C
:103A3000014301335B00B0FBF3F008BD144B586841
:103A4000C0F388104FEA401CBCEB000C6EEB0E0E6E
:103A50004FEA8E1343EA9C634FEA8C11B1EB0C01E1
:103A600063EB0E03DB0043EA5173C90011EB000C5A
:103A700043F10003990200234FEA8C2041EA9C5154
:103A8000FDF744F8D1E70348D7E70348D5E700BF7F
:103A900000380240001BB7000024F400002800F0AA
:103AA0009B8070B50D4604464F4B1B6803F007031F
:103AB0008B4208D2CBB24C4A1370136803F0070351
:103AC0008B4240F08B80236813F0020F17D013F065
:103AD000040F04D0454A936843F4E053936023688D
:103AE00013F0080F04D0414A936843F46043936095
:103AF0003E4A936823F0F003A1680B439360236868
:103B000013F0010F32D06368012B21D09A1E012AD5
:103B100025D9364A126812F0020F61D033498A68FB
:103B200022F0030213438B60FEF794FD06462F4BF1
:103B30009B6803F00C036268B3EB820F16D0FEF7AC
:103B400089FD801B41F288339842F0D9032042E07E
:103B5000264A126812F4003FE0D101203BE0234ADC
:103B6000126812F0007FD9D1012034E01E4B1B688F
:103B700003F00703AB4207D9EAB21B4B1A701B686C
:103B800003F00703AB422DD1236813F0040F06D0D6
:103B9000164A936823F4E053E1680B43936023686B
:103BA00013F0080F07D0114A936823F4604321698A
:103BB00043EAC1039360FFF71DFF0C4B9B68C3F3FF
:103BC00003130B4AD35CD8400A4B18600A4B1868A1
:103BD000FEF77AF9002070BD012070470120FAE756
:103BE0000120F8E70120F6E7003C024000380240DF
:103BF00074D501080800002010000020014B18684F
:103C0000704700BF0800002008B5FFF7F7FF044B1E
:103C10009B68C3F38223034AD35CD84008BD00BF2E
:103C2000003802406CD5010808B5FFF7E7FF044BE8
:103C30009B68C3F34233034AD35CD84008BD00BF3E
:103C4000003802406CD501080F2303600B4B9A68C3
:103C500002F0030242609A6802F0F00282609A6801
:103C600002F4E052C2609B68DB0803F4E053036196
:103C7000034B1B6803F007030B60704700380240DA
:103C8000003C024000285AD010B50446436A33B9BC
:103C90004368B3F5827F05D00023C36102E00023AF
:103CA000036143610023A36294F85130002B40D09C
:103CB000022384F851302268136823F04003136014
:103CC000636803F48273A26802F404421343E26857
:103CD00002F400621343226902F002021343626994
:103CE00002F001021343A26902F400721343E26975
:103CF00002F038021343226A02F080021343A26AE0
:103D000002F40052216813430B60638B03F0040339
:103D1000626A02F01002216813434B602268D36983
:103D200023F40063D36100206065012384F85130DF
:103D300010BD84F850302046FDF7E6FFB8E70120BB
:103D40007047000030B4036A026A22F00102026286
:103D50004268846924F0730C0C6844EA0C0423F074
:103D6000020C8B6843EA0C03114DA84203D005F501
:103D70008065A84205D123F00803CD682B4323F0CA
:103D800004030B4DA84203D005F58065A84207D176
:103D900022F440724D6945EA020C8A6942EA0C023B
:103DA000426084614A684263036230BC704700BF6E
:103DB0000000014030B4036A026A22F48072026299
:103DC0004268C46924F0730C0C6844EA0C0523F4BF
:103DD00000738C6843EA0423114CA04203D004F51D
:103DE0008064A04206D123F40063CC6843EA042334
:103DF00023F480630A4CA04203D004F58064A042FF
:103E000007D122F440524C6942EA04128C6942EA1A
:103E100004124260C5614A68C263036230BC7047E5
:103E20000000014030B4036A026A22F48052026248
:103E30004468C26922F4E6420D6842EA052223F48E
:103E400000538D6843EA0533094DA84203D005F5B8
:103E50008065A84204D124F480444D6944EA851465
:103E60004460C2614A680264036230BC704700BFAC
:103E7000000001407047000090F83D30DBB2012B9C
:103E800032D1022380F83D300368194A934220D092
:103E9000B3F1804F1DD0A2F57C42934219D002F5B8
:103EA0008062934215D002F58062934211D002F5F0
:103EB000784293420DD002F57052934209D0A2F598
:103EC0009432934205D01A6842F001021A60002031
:103ED00070479A6802F00702062A07D01A6842F073
:103EE00001021A60002070470120704700207047CF
:103EF0000000014090F83D30DBB2012B37D10223A6
:103F000080F83D300268D36843F00103D360036852
:103F1000194A934220D0B3F1804F1DD0A2F57C42C4
:103F2000934219D002F58062934215D002F5806267
:103F3000934211D002F5784293420DD002F57052AF
:103F4000934209D0A2F59432934205D01A6842F008
:103F500001021A60002070479A6802F00702062AE0
:103F600007D01A6842F001021A6000207047012051
:103F700070470020704700BF000001407047704745
:103F80007047704770B504460368DE681D6915F018
:103F9000020F10D016F0020F0DD06FF002021A615E
:103FA0000123037703689B6913F0030F5ED0FFF7CB
:103FB000E6FF0023237715F0040F12D016F0040F4C
:103FC0000FD023686FF004021A610223237723685D
:103FD0009B6913F4407F4FD02046FFF7D0FF0023AA
:103FE000237715F0080F12D016F0080F0FD02368B2
:103FF0006FF008021A61042323772368DB6913F04A
:10400000030F40D02046FFF7BAFF0023237715F0B7
:10401000100F12D016F0100F0FD023686FF010029F
:104020001A61082323772368DB6913F4407F31D0BA
:104030002046FFF7A4FF0023237715F0010F02D0DD
:1040400016F0010F2DD115F0800F02D016F0800F61
:104050002FD115F0400F02D016F0400F31D115F0DE
:10406000200F02D016F0200F33D170BDFFF786FF6E
:104070002046FFF785FF9CE72046FFF77FFF20469D
:10408000FFF77EFFABE72046FFF778FF2046FFF7FC
:1040900077FFBAE72046FFF771FF2046FFF770FF72
:1040A000C9E723686FF001021A612046FDF75CFD45
:1040B000C9E723686FF080021A61204600F055FAC4
:1040C000C7E723686FF040021A612046FFF759FFE7
:1040D000C5E723686FF020021A61204600F044FA19
:1040E000C3E700000368344A904212D0B0F1804F19
:1040F0000FD0A2F57C4290420BD002F58062904234
:1041000007D002F58062904203D002F578429042D7
:1041100003D123F070034A681343274A90422AD000
:10412000B0F1804F27D0A2F57C42904223D002F517
:10413000806290421FD002F5806290421BD002F54F
:104140007842904217D002F57052904213D002F597
:10415000806290420FD002F5806290420BD0A2F5AF
:104160009832904207D002F58062904203D002F567
:104170008062904203D123F44073CA68134323F052
:1041800080034A69134303608B68C3620B688362D0
:10419000094B984203D003F58063984201D10B6923
:1041A000036301234361036913F0010F03D0036923
:1041B00023F00103036170470000014040B310B5D4
:1041C000044690F83D30F3B1022384F83D30214697
:1041D00051F8040BFFF786FF012384F8463084F87A
:1041E0003E3084F83F3084F8403084F8413084F821
:1041F000423084F8433084F8443084F8453084F801
:104200003D30002010BD80F83C30FFF733FEDBE787
:104210000120704740B310B5044690F83D30F3B12B
:10422000022384F83D30214651F8040BFFF75AFF72
:10423000012384F8463084F83E3084F83F3084F817
:10424000403084F8413084F8423084F8433084F8B8
:10425000443084F8453084F83D30002010BD80F8AB
:104260003C30FDF771FFDBE70120704730B4036A93
:10427000026A22F0100202624468826922F4E64275
:104280000D6842EA052223F020038D6843EA0513F6
:10429000114DA84203D005F58065A84206D123F050
:1042A0008003CD6843EA051323F040030A4DA8427A
:1042B00003D005F58065A84207D124F440644D6918
:1042C00044EA85048D6944EA8504446082614A6851
:1042D0008263036230BC70470000014038B590F83B
:1042E0003C30012B66D004460D46012380F83C305B
:1042F0000C2A5AD8DFE802F0075959591B59595965
:104300003059595944000068FFF71CFD2268936931
:1043100043F0080393612268936923F004039361D7
:104320002268936929690B43936100203EE000688D
:10433000FFF79CFF2268936943F40063936122684E
:10434000936923F48063936122689369296943EA3E
:1043500001239361002029E00068FFF72BFD22680C
:10436000D36943F00803D3612268D36923F00403BF
:10437000D3612268D36929690B43D361002015E01A
:104380000068FFF74FFD2268D36943F40063D361EF
:104390002268D36923F48063D3612268D3692969D1
:1043A00043EA0123D361002000E00120002384F8C8
:1043B0003C3038BD0220FCE701F01F014FF0010C3A
:1043C0000CFA01FC036A23EA0C030362036A8A40C5
:1043D000134303627047000010B5044608460029E5
:1043E00042D194F83E30DBB2013B18BF0123002BD1
:1043F0006ED1002851D1022384F83E3001220146BB
:104400002068FFF7D9FF2368334A934203D002F5AF
:104410008062934203D15A6C42F400425A6423688A
:104420002D4A934249D0B3F1804F46D0A2F57C4249
:10443000934242D002F5806293423ED002F5806200
:1044400093423AD002F57842934236D002F5705248
:10445000934232D0A2F5943293422ED01A6842F0A1
:1044600001021A60002032E0042908D008290DD08A
:1044700094F84130DBB2013B18BF0123B7E794F851
:104480003F30DBB2013B18BF0123B0E794F8403066
:10449000DBB2013B18BF0123A9E7042805D0082897
:1044A00007D0022384F84130A8E7022384F83F3084
:1044B000A4E7022384F84030A0E79A6802F00702DC
:1044C000062A07D01A6842F001021A60002010BDC7
:1044D0000120FCE70020FAE70000014090F83C20B2
:1044E000012A3DD010B40346012280F83C2002226C
:1044F00080F83D2002685068946820F0700C0868CD
:1045000040EA0C0050601A68164882421AD0B2F194
:10451000804F17D0A0F57C40824213D000F5806018
:1045200082420FD000F5806082420BD000F57840C7
:10453000824207D000F57050824203D0A0F594303B
:10454000824204D124F08004496821439160012211
:1045500083F83D20002083F83C005DF8044B704751
:104560000220704700000140704770477047704755
:1045700070477047704770477047704708B50346EB
:10458000806B1B681B6813F4807F2BD10023C385CD
:10459000026802F10C0353E8003F23F480730C32ED
:1045A00042E800310029F3D1026802F1140353E814
:1045B000003F23F00103143242E800310029F3D117
:1045C000026802F1140353E8003F23F04003143261
:1045D00042E800310029F3D1202380F84230036BF8
:1045E000012B07D000234363036B012B0FD0436DD6
:1045F000984708BD026802F10C0353E8003F23F01E
:1046000010030C3242E800310029F3D1EAE7C36E0F
:10461000818D9847EDE708B5806B01234363036BF9
:10462000012B02D0036D984708BDC36E818D4908E8
:104630009847F9E7026802F10C0353E8003F23F0C2
:10464000C0030C3242E800310029F3D1202380F866
:1046500041307047026802F10C0353E8003F23F435
:1046600090730C3242E800310029F3D1026802F164
:10467000140353E8003F23F00103143242E80031F1
:104680000029F3D1036B012B05D0202380F84230A1
:10469000002303637047026802F10C0353E8003FF4
:1046A00023F010030C3242E800310029F3D1ECE78B
:1046B00010B5846B23685A6994F84130DBB2212B22
:1046C00010D023685A6902F0400294F84230DBB2FD
:1046D000222B11D0636C43F010036364A36D20465A
:1046E000984710BD02F08002002AEAD00023E3843C
:1046F0002046FFF79FFFE4E7002AEBD00023E38585
:104700002046FFF7A7FFE5E708B5806B0023C385C8
:10471000C384836D984708BD90F84130DBB2212BEC
:1047200001D0022070478368B3F5805F17D0036A19
:104730005A1C02621A7803685A60C38C9BB2013B10
:104740009BB2C3844BB90268D36823F08003D36063
:104750000268D36843F04003D360002070470369C8
:10476000002BE4D1036A1B880268C3F3080353607B
:10477000036A02330362E0E708B50168CA6822F001
:104780004002CA60202280F84120C36C9847002074
:1047900008BD90F84230DBB2222B69D18368B3F5B3
:1047A000805F34D0826AB3F5805F04D0002B3BD1A8
:1047B0000369002B38D103685B681370836A013387
:1047C0008362C38D9BB2013B9BB2C385002B51D149
:1047D00000B583B00268D36823F02003D360026879
:1047E000D36823F48073D3600268536923F0010314
:1047F0005361202380F8423000234363036B012B75
:1048000018D0436D9847002003B05DF804FB02699F
:10481000002AC7D1826A03685B68C3F30803138068
:10482000836A02338362CCE703685B6803F07F032B
:104830001370C3E700230363026802F10C0353E81B
:10484000003F23F010030C3242E800310029F3D17D
:1048500003681A6812F0100F06D0002201921A683D
:1048600001925B680193019BC36E818D9847CAE7F3
:10487000022070470020704710B504460268136993
:1048800023F44053C1680B431361836802691A43E0
:1048900043691A43C3691A430168CB6823F416437A
:1048A00023F00C031343CB600268536923F4407375
:1048B00081690B4353610368314A934206D002F584
:1048C0008062934202D0FFF79FF901E0FFF7ACF955
:1048D000E369B3F5004F29D00021031849411B18A3
:1048E00041F10001C90041EA5371DB001818636807
:1048F0004FEA83024FEA937341F10001FCF706F996
:10490000204AA2FB00314909642303FB11031B0168
:104910003233A2FB03235B0903F0F00202EB011226
:1049200003F00F03216813448B6010BD00230218AD
:1049300043EB0301121841F10001C90041EA527131
:10494000D200101841F10001626892185B41FCF737
:10495000DDF80C4AA2FB00314909642303FB110373
:10496000DB003233A2FB03235B095A0002F4F87226
:1049700002EB011203F00703216813448B60D4E7B4
:10498000001001401F85EB512DE9F04383B005462F
:104990000E4617469946DDF828802B681C6836EAD3
:1049A00004040CBF01240024BC4228D1B8F1FF3F0D
:1049B000F3D0FDF74FFEA0EB0900404523D8B8F136
:1049C000000F22D02B68DA6812F0040FE5D0802E99
:1049D000E3D0402EE1D01A6812F0080FDDD0002499
:1049E00001941A6801925B680193019B2846FFF7C6
:1049F00031FE08236B6485F84040012000E0002070
:104A000003B0BDE8F0830320FAE70320F8E703468C
:104A1000B2B110B4144690F84120D2B2202A15D079
:104A200090F8412002F0FF00002A42D10B293CD02F
:104A30000C293CD05A6C42F020025A6401203DE01F
:104A4000426C42F020024264012070470C2926D8B3
:104A5000DFE801F0070A0D101316191C2525251F84
:104A600022008464084629E0C464002026E004652E
:104A7000002023E04465002020E0846500201DE044
:104A8000C46500201AE00466002017E04466002098
:104A900014E00467002011E0446700200EE0426C3F
:104AA00042F020024264012008E01C6706E05C67D7
:104AB00004E05A6C42F020025A6401205DF8044B75
:104AC00070470346A1B193F84020012A19D0012272
:104AD00083F8402093F84120D2B2202A0ED05A6C9D
:104AE00042F020025A640120002283F840207047DF
:104AF0005A6C42F020025A6401207047D9660020A7
:104B0000F2E7022070472DE9F04182B01E4690F88E
:104B10004130DBB2202B56D104460D469046002989
:104B200055D00AB901204FE000234364212380F8C7
:104B30004130FDF78FFD0746A4F82480A4F82680B5
:104B4000A368B3F5805F02D04FF0000814E023693A
:104B50002BB34FF000080FE0202384F841300320EE
:104B600032E038F8023B2268C3F308035360E28C5A
:104B700092B2013A92B2E284E38C9BB293B1009676
:104B80003B46002280212046FFF7FEFE0028E3D1AD
:104B9000002DE6D015F8012B23685A60E7E7A846F8
:104BA0000025E9E700963B46002240212046FFF71A
:104BB000EBFE18B9202384F8413005E0202384F867
:104BC0004130032000E0022002B0BDE8F081012066
:104BD000FAE7000010B582B0044602681368D06896
:104BE000516913F00F0F09D113F0200F0CD010F002
:104BF000200F09D02046FFF7CCFD16E011F001018F
:104C000015D110F4907F12D1216B012979D013F0C6
:104C1000800F03D010F0800F40F0148113F0400F8C
:104C200003D010F0400F40F0118102B010BD13F01E
:104C3000010F06D010F4807F03D0626C42F00102B5
:104C4000626413F0040F04D019B1626C42F00202E6
:104C5000626413F0020F04D019B1626C42F00402D6
:104C6000626413F0080F07D010F0200F00D119B1C3
:104C7000626C42F008026264626C002AD5D013F0C4
:104C8000200F02D010F0200F29D123685B6903F0B8
:104C90004003626C12F0080F00D163B32046FFF7A7
:104CA000D9FC23685B6913F0400F20D0226802F121
:104CB000140353E8003F23F04003143242E800316C
:104CC0000029F3D1E36B73B1624A1A65E06BFEF71A
:104CD0006CFA0028A9D0E06B036D9847A5E7204641
:104CE000FFF757FDD1E7A36D204698479DE7A36DD9
:104CF0002046984799E7A36D2046984700236364B0
:104D000093E713F0100F82D010F0100F3FF47FAF35
:104D1000002301931368019353680193019B536926
:104D200013F0400F52D0E26B13685B689BB2002B0C
:104D30003FF47BAFA18D99427FF677AFE385D369CE
:104D4000B3F5807F37D0226802F10C0353E8003FAF
:104D500023F480730C3242E800310029F3D1226839
:104D600002F1140353E8003F23F00103143242E838
:104D700000310029F3D1226802F1140353E8003F07
:104D800023F04003143242E800310029F3D12023FC
:104D900084F8423000232363226802F10C0353E8B5
:104DA000003F23F010030C3242E800310029F3D118
:104DB000E06BFEF7B0F902236363E26EA18DE38D31
:104DC0009BB2C91A89B2204690472EE7A18DE38D88
:104DD0009BB2C91A89B2E38D9BB2002B3FF425AF79
:104DE00000293FF422AF226802F10C0353E8003F90
:104DF00023F490730C3242E800300028F3D122688B
:104E000002F1140353E8003F23F00103143242E897
:104E100000300028F3D1202384F84230002323639C
:104E2000226802F10C0353E8003F23F010030C3218
:104E300042E800300028F3D102236363E36E20468A
:104E40009847F2E62046FFF767FCEEE62046FFF7BC
:104E500093FCEAE609470008094B8364094BC364E5
:104E6000094B0365094B4365094B8365094BC365D2
:104E7000094B0366094B4366094BC366704700BF85
:104E80006D450008D9770008714500086F45000896
:104E90007345000875450008774500087945000806
:104EA0007B450008002834D010B5044690F8413006
:104EB00013B3242384F841302268D36823F40053C9
:104EC000D3602046FFF7D8FC2268136923F490438F
:104ED00013612268536923F02A0353612268D3685F
:104EE00043F40053D36000206064202384F84130F1
:104EF00084F84230606310BD80F84030FFF7ACFFAB
:104F0000236F1BB1236F20469847D2E7024B2367DC
:104F1000F8E70120704700BF0123000830B583B0D7
:104F2000044613468162828500254564222280F86A
:104F30004220C26B1F48D063E26B1F481064E26BD3
:104F40001E48D064E26B156520680A46011DE06BBF
:104F5000FEF7ACF8019523681A6801925B6801932B
:104F6000019B23695BB1226802F10C0353E8003F07
:104F700043F480730C3242E800310029F3D12268F7
:104F800002F1140353E8003F43F00103143242E8F6
:104F900000310029F3D1226802F1140353E8003FE5
:104FA00043F04003143242E800310029F3D10020DD
:104FB00003B030BD7D45000817460008B146000823
:104FC00090F84230DBB2202B29D110B582B00446D4
:104FD00039B312B9012002B010BD012303630023CD
:104FE0004363FFF79BFF0028F5D1236B012B01D012
:104FF0000120F0E70023019323681A6801925B689F
:105000000193019B226802F10C0353E8003F43F037
:1050100010030C3242E800310029F3D1DBE7022013
:1050200070470120D7E708B54FF0E0231B6902F075
:105030003DF8012800D108BD00F084FBFBE700002B
:10504000EFF305832BB9064B186828B901221A60C3
:1050500070476FF0050070474FF0FF30704700BF9A
:1050600030190020EFF3058373B90A4B1B68012B3D
:105070000DD110B50024084BDC77064B02221A60D4
:1050800001F008FD204610BD6FF0050070474FF09D
:10509000FF3070473019002000ED00E008B5EFF355
:1050A000058313B101F05AFD08BD01F051FDFBE786
:1050B000F0B587B000240594EFF305847CBB70B392
:1050C0002AB31568936903B918235C1E372C4AD894
:1050D000546814F0010F48D1566976B14FEA960C26
:1050E000946834B1D768B7F5D47F02D3176907B194
:1050F000C6B92CB14FF0FF340EE04FF0800CEFE753
:10510000D4688CB9146994B14FF0FF3404E01546AB
:10511000002418234FF0800C012C0AD0ACB1059864
:1051200007B0F0BD0124F7E74FF0FF34F4E70024A7
:10513000F2E7146992680292019400930B4662466A
:10514000294601F037FC0590E9E705AA0192009392
:105150000B461FFA8CF2294601F069FC0128DED0CB
:1051600000230593DBE70020DAE70020D8E708B545
:10517000EFF3058333B908B9002008BD01F050FEF4
:105180000020FAE76FF00500F7E7EFF3058373B946
:1051900010B582B0044601F0DBFC0190211A002911
:1051A00008DD01A801F0EAFD002002B010BD6FF09B
:1051B000050070476FF00300F7E770B582B0EFF3BA
:1051C0000583002B48D10E461446002848D088425B
:1051D00048D34AB1956815B1D3684F2B14D8002D28
:1051E00042D1E3680BB138E0002301280ED06BBB3D
:1051F000314600F03FFE05467DB304B124682146E8
:10520000284601F0B3F928E00123EEE7ABB9032209
:105210000021012000F0E7FD0546F5B1002EEBD09E
:1052200000231A461946284600F042FE0128E3D022
:10523000284601F0C5F900250FE0A368032200927B
:105240000022114600F085FD0546E6E7A2683146DA
:1052500000F0EDFD0546CFE70025284602B070BD01
:105260000025FAE70025F8E70025F6E720B310B59A
:1052700082B00C46EFF30583B3B101BB002101916D
:1052800001AA01F01BF901281CD1019850B14FF07F
:10529000E0234FF08052C3F8042DBFF34F8FBFF3CC
:1052A0006F8F002002B010BD01F035F801280CD03E
:1052B0006CB16FF00100F5E76FF0030070476FF01D
:1052C0000300EFE76FF00200ECE70020EAE76FF081
:1052D0000200E7E720B300B583B0EFF30583A3B185
:1052E0000023019301A900F00EFF01281BD10198B2
:1052F00098B14FF0E0234FF08052C3F8042DBFF374
:105300004F8FBFF36F8F002007E000231A46194626
:1053100000F0CEFD012809D1002003B05DF804FBA8
:105320006FF0030070476FF00200F6E76FF00200C5
:10533000F3E770B582B0EFF30583002B3AD1144642
:1053400000283BD000293BD06AB393684BB1D268A8
:105350004F2A06D9226922B101FB00F56669AE42E7
:105360001BD273B14FF0FF3363BB002200F03BFD53
:10537000054605B304B124682146284601F0F6F835
:1053800019E0E3688BB9236913B14FF0FF33EBE702
:1053900063696BB14FF0FF33E6E70025009500F03D
:1053A000D8FC0546E5E70023DEE74FF0FF33DBE7F7
:1053B0000023D9E70025284602B070BD0025FAE792
:1053C0000025F8E70025F6E710B582B01C46EFF39C
:1053D0000583C3B118B329B33CBB0023019301AAD1
:1053E00000F02AFE012823D1019850B14FF0E023AC
:1053F0004FF08052C3F8042DBFF34F8FBFF36F8F70
:10540000002002B010BDB0B1C1B10023224600F0AF
:105410004FFD012815D0B4B16FF00100F1E76FF036
:105420000300EEE76FF00300EBE76FF00300E8E73F
:105430006FF00200E5E76FF00300E2E76FF00300B2
:10544000DFE70020DDE76FF00200DAE710B582B099
:105450001C46EFF30583C3B110B321B334BB002363
:10546000019301AA01F02AF8012822D1019850B134
:105470004FF0E0234FF08052C3F8042DBFF34F8F5D
:10548000BFF36F8F002002B010BDA8B1B9B12246A2
:1054900000F092FE012815D0B4B16FF00100F2E7E0
:1054A0006FF00300EFE76FF00300ECE76FF003002D
:1054B000E9E76FF00200E6E76FF00300E3E76FF063
:1054C0000300E0E70020DEE76FF00200DBE700000A
:1054D000034B0360034B0B6080231360704700BFD6
:1054E0008817002088150020034B0360034B0B60D6
:1054F0004FF4807313607047E0130020DC0F00202E
:1055000000F1080343604FF0FF328260C360036123
:1055100000230360704700230361704743684B60BA
:105520009A688A605160996008610368013303607A
:10553000704730B40D68B5F1FF3F11D000F108039A
:105540001C465B681A68AA42FAD963684B60996086
:105550008C606160086103680133036030BC704790
:105560000469F2E70369416882688A6041685160B2
:105570005A68824206D0002202611A68013A1A6013
:105580001868704782685A60F5E7000082B000230F
:1055900001930D4B1B68B3F1FF3F08D04FF0500350
:1055A00083F31188BFF36F8FBFF34F8FFEE74FF088
:1055B000500383F31188BFF36F8FBFF34F8F019BAD
:1055C000002BFCD002B0704714000020084800688F
:1055D000006880F308884FF0000080F3148862B6FA
:1055E00061B6BFF34F8FBFF36F8F00DF00BF0000C6
:1055F00008ED00E0DFF80C00016841F47001016083
:105600007047000088ED00E04FF0807340F8043CE4
:1056100021F0010140F8081C054B40F80C3C40F813
:10562000202C6FF0020340F8243C4438704700BF40
:105630008D55000800000000000000000000000080
:10564000074B19680868B0E8F04F80F30988BFF38A
:105650006F8F4FF0000080F311887047AFF3008028
:10566000886E01204FF0500383F31188BFF36F8FD2
:10567000BFF34F8F0B4A136801331360012B00D027
:1056800070474FF0E023D3F8043D13F0FF0FF7D03D
:105690004FF0500383F31188BFF36F8FBFF34F8F29
:1056A000FEE700BF14000020094B1B6843B94FF010
:1056B000500383F31188BFF36F8FBFF34F8FFEE763
:1056C000013B034A13600BB983F31188704700BF95
:1056D0001400002000000000000000000000000096
:1056E000EFF30980BFF36F8F154B1A681EF0100F90
:1056F00008BF20ED108A20E9F04F10602DE9090065
:105700004FF0500080F31188BFF34F8FBFF36F8FBE
:1057100001F0ACFB4FF0000080F3118809BC196860
:105720000868B0E8F04F1EF0100F08BFB0EC108A08
:1057300080F30988BFF36F8F704700BFAFF300801D
:10574000886E012008B54FF0500383F31188BFF332
:105750006F8FBFF34F8F01F009FA28B14FF0E023AC
:105760004FF08052C3F8042D002383F3118808BD45
:105770004FF0E022002313619361054B1B6805493C
:10578000A1FB03139B09013B53610723136170477E
:1057900008000020D34D62104FF0E023D3F8002D15
:1057A0003D4B9A421CD04FF0E023D3F8002D3B4BE9
:1057B0009A421ED030B583B0394B1A78D2B20192DA
:1057C000FF221A701B78DBB28DF803309DF803308E
:1057D00003F05003334A1370334B07221A601BE067
:1057E0004FF0500383F31188BFF36F8FBFF34F8FD8
:1057F000FEE74FF0500383F31188BFF36F8FBFF3C1
:105800004F8FFEE7284A1368013B13609DF8033071
:105810005B00DBB28DF803309DF8033013F0800F8E
:10582000F0D1214B1B68032B08D04FF0500383F3BA
:105830001188BFF36F8FBFF34F8FFEE71B021A4A29
:10584000136003F4E0631360019BDBB2144A13702E
:105850004FF0E024D4F8203D43F47003C4F8203D19
:10586000D4F8203D43F07043C4F8203DFFF780FF9B
:1058700000250E4B1D60FFF7BDFED4F8343F43F00A
:105880004043C4F8343FFFF7A1FE01F0EFFAFFF701
:105890007DFE284603B030BD71C20F4170C20F417A
:1058A00000E400E038190020341900201400002022
:1058B000EFF305830F2B0FD9114A9B5CDBB2114A22
:1058C00012789A4208D94FF0500383F31188BFF33E
:1058D0006F8FBFF34F8FFEE74FF0E023D3F80C3DFF
:1058E00003F4E063084A1268934208D94FF050036A
:1058F00083F31188BFF36F8FBFF34F8FFEE77047BD
:10590000F0E300E03819002034190020134A12F0A7
:10591000070F20D0D11D21F00701C1F5A73303F5F2
:10592000F87313440A460E48026000214160134494
:10593000083B23F007030B48036059601960991A6C
:1059400051601360084B1960084B1960084B4FF009
:1059500000421A607047074BE5E700BF5C19002062
:105960005419002050190020481900204C1900201B
:105970003C190020F04F0100164B1A461B68834269
:10598000FBD3516802EB010C844509D0416800EB60
:10599000010C634509D00360904219D01060704734
:1059A0004068014451601046F0E710B40A4C246886
:1059B000A3420BD05B681944416013681B68036005
:1059C000904200D010605DF8044B70470460F7E728
:1059D000704700BF541900205019002038B5044604
:1059E00001F0AEF8384B1B68B3B1384B1B681C4252
:1059F00050D1002C50D004F1080214F0070F02D04F
:105A000022F007020832002A55D0314B1B6893421E
:105A100053D330490C6804E0FFF778FFE5E72146EF
:105A20001C466368934202D22368002BF7D1264BB1
:105A30001B68A34243D00D68083523680B60636878
:105A40009B1A102B10D9A01810F0070F08D04FF098
:105A5000500383F31188BFF36F8FBFF34F8FFEE7BF
:105A600043606260FFF788FF626819490B689B1A00
:105A70000B60194909688B4201D217490B60134B1F
:105A80001B681343636000232360144A13680133C7
:105A9000136002E0002500E0002501F0F3F815F0A6
:105AA000070F0ED04FF0500383F31188BFF36F8FB1
:105AB000BFF34F8FFEE70025EFE70025EDE7002558
:105AC000EBE7284638BD00BF501900203C190020E4
:105AD0004C190020541900204819002044190020B6
:105AE000002834D038B50446A0F1080550F8043C2D
:105AF000174A1268134208D14FF0500383F31188FC
:105B0000BFF36F8FBFF34F8FFEE750F8081C41B112
